:100000000A128A11132F00308A000408840A82071A
:1000100000344C34593443344134203453344F3455
:06002000463454340034A4
:100E260083010A128A11A92F02300A128A114B274E
:100E36000A128A1128300A128A114B270A128A11BD
:100E46000C300A128A114B270A128A110800F40084
:100E56003D2F740884000A128A1103200A128A118F
:100E66000A128A117A270A128A110130F3007308CE
:100E7600F4073D2F740884000A128A1103200A120F
:100E86008A110038031D482F492F2C2F4A2F08009E
:100E9600F2007208F03983120313880008118815CE
:100EA6002130F1007630F000F00B572FF10B572F61
:100EB60064008312031388117208F00003300310D4
:100EC600F00DFF3E031D622F0310700DF0398800F0
:100ED600081188152130F1007630F000F00B712FE3
:100EE600F10B712F64008312031388110800F200BE
:100EF6007208F0398312031388000815881521300B
:100F0600F1007630F000F00B862FF10B862F64008F
:100F16008312031388117208F00003300310F00DDA
:100F2600FF3E031D912F0310700DF0398800081540
:100F360088152130F1007630F000F00BA02FF10B70
:100F4600A02F640083120313881108000230831651
:100F56000313880083120313880183160313870182
:100F66008312031387010A128A1117270A128A119C
:100F760080300A128A114B270A128A1101300A128E
:100F86008A112A270A128A11F42FF42FC0300A1266
:100F96008A114B270A128A117508303E0A128A11E5
:100FA6007A270A128A110130F5070318F60A00306B
:100FB600F6077608803AFF0080307F02031DE52F92
:100FC6000A307502031CE82FE92FED2FF501F60113
:100FD600ED2FED2F831203138818F22FF32FED2F29
:100FE600F42F831203138818F92FFA2FC92FF42F21
:0A0FF600F42FF42F0A128A110028CC
:02400E003A3F37
:00000001FF
